{
  "contractName": "EcoAllyCore",
  "abi": [
    {
      "constant": false,
      "inputs": [
        {
          "name": "_to",
          "type": "address"
        },
        {
          "name": "_tokenId",
          "type": "uint256"
        }
      ],
      "name": "approve",
      "outputs": [],
      "payable": false,
      "stateMutability": "nonpayable",
      "type": "function",
      "signature": "0x095ea7b3"
    },
    {
      "constant": true,
      "inputs": [],
      "name": "ceoAddress",
      "outputs": [
        {
          "name": "",
          "type": "address"
        }
      ],
      "payable": false,
      "stateMutability": "view",
      "type": "function",
      "signature": "0x0a0f8168"
    },
    {
      "constant": true,
      "inputs": [],
      "name": "totalSupply",
      "outputs": [
        {
          "name": "",
          "type": "uint256"
        }
      ],
      "payable": false,
      "stateMutability": "view",
      "type": "function",
      "signature": "0x18160ddd"
    },
    {
      "constant": false,
      "inputs": [
        {
          "name": "_from",
          "type": "address"
        },
        {
          "name": "_to",
          "type": "address"
        },
        {
          "name": "_tokenId",
          "type": "uint256"
        }
      ],
      "name": "transferFrom",
      "outputs": [],
      "payable": false,
      "stateMutability": "nonpayable",
      "type": "function",
      "signature": "0x23b872dd"
    },
    {
      "constant": false,
      "inputs": [
        {
          "name": "_newCEO",
          "type": "address"
        }
      ],
      "name": "setCEO",
      "outputs": [],
      "payable": false,
      "stateMutability": "nonpayable",
      "type": "function",
      "signature": "0x27d7874c"
    },
    {
      "constant": true,
      "inputs": [
        {
          "name": "",
          "type": "uint256"
        }
      ],
      "name": "ecoAllyIndexToApproved",
      "outputs": [
        {
          "name": "",
          "type": "address"
        }
      ],
      "payable": false,
      "stateMutability": "view",
      "type": "function",
      "signature": "0x3e4bd727"
    },
    {
      "constant": true,
      "inputs": [
        {
          "name": "",
          "type": "uint256"
        }
      ],
      "name": "ecoAllyIndexToOwner",
      "outputs": [
        {
          "name": "",
          "type": "address"
        }
      ],
      "payable": false,
      "stateMutability": "view",
      "type": "function",
      "signature": "0x4a765037"
    },
    {
      "constant": true,
      "inputs": [],
      "name": "paused",
      "outputs": [
        {
          "name": "",
          "type": "bool"
        }
      ],
      "payable": false,
      "stateMutability": "view",
      "type": "function",
      "signature": "0x5c975abb"
    },
    {
      "constant": true,
      "inputs": [
        {
          "name": "_tokenId",
          "type": "uint256"
        }
      ],
      "name": "ownerOf",
      "outputs": [
        {
          "name": "owner",
          "type": "address"
        }
      ],
      "payable": false,
      "stateMutability": "view",
      "type": "function",
      "signature": "0x6352211e"
    },
    {
      "constant": true,
      "inputs": [],
      "name": "newContractAddress",
      "outputs": [
        {
          "name": "",
          "type": "address"
        }
      ],
      "payable": false,
      "stateMutability": "view",
      "type": "function",
      "signature": "0x6af04a57"
    },
    {
      "constant": true,
      "inputs": [
        {
          "name": "_owner",
          "type": "address"
        }
      ],
      "name": "balanceOf",
      "outputs": [
        {
          "name": "count",
          "type": "uint256"
        }
      ],
      "payable": false,
      "stateMutability": "view",
      "type": "function",
      "signature": "0x70a08231"
    },
    {
      "constant": false,
      "inputs": [],
      "name": "pause",
      "outputs": [],
      "payable": false,
      "stateMutability": "nonpayable",
      "type": "function",
      "signature": "0x8456cb59"
    },
    {
      "constant": true,
      "inputs": [
        {
          "name": "_owner",
          "type": "address"
        }
      ],
      "name": "tokensOfOwner",
      "outputs": [
        {
          "name": "ownerTokens",
          "type": "uint256[]"
        }
      ],
      "payable": false,
      "stateMutability": "view",
      "type": "function",
      "signature": "0x8462151c"
    },
    {
      "constant": false,
      "inputs": [
        {
          "name": "_to",
          "type": "address"
        },
        {
          "name": "_tokenId",
          "type": "uint256"
        }
      ],
      "name": "transfer",
      "outputs": [],
      "payable": false,
      "stateMutability": "nonpayable",
      "type": "function",
      "signature": "0xa9059cbb"
    },
    {
      "inputs": [],
      "payable": false,
      "stateMutability": "nonpayable",
      "type": "constructor",
      "signature": "constructor"
    },
    {
      "anonymous": false,
      "inputs": [
        {
          "indexed": false,
          "name": "from",
          "type": "address"
        },
        {
          "indexed": false,
          "name": "to",
          "type": "address"
        },
        {
          "indexed": false,
          "name": "tokenId",
          "type": "uint256"
        }
      ],
      "name": "Transfer",
      "type": "event",
      "signature": "0xddf252ad1be2c89b69c2b068fc378daa952ba7f163c4a11628f55a4df523b3ef"
    },
    {
      "anonymous": false,
      "inputs": [
        {
          "indexed": false,
          "name": "owner",
          "type": "address"
        },
        {
          "indexed": false,
          "name": "approved",
          "type": "address"
        },
        {
          "indexed": false,
          "name": "tokenId",
          "type": "uint256"
        }
      ],
      "name": "Approval",
      "type": "event",
      "signature": "0x8c5be1e5ebec7d5bd14f71427d1e84f3dd0314c0f7b2291e5b200ac8c7c3b925"
    },
    {
      "anonymous": false,
      "inputs": [
        {
          "indexed": false,
          "name": "owner",
          "type": "address"
        },
        {
          "indexed": false,
          "name": "ecoAllyId",
          "type": "uint256"
        },
        {
          "indexed": false,
          "name": "ecoAllyDNA",
          "type": "uint256"
        }
      ],
      "name": "Creation",
      "type": "event",
      "signature": "0x0c42492e9a23edb18d7a10ab834f9871ecd80970bffc97312a8a1c05b88e807d"
    },
    {
      "anonymous": false,
      "inputs": [
        {
          "indexed": false,
          "name": "newContract",
          "type": "address"
        }
      ],
      "name": "ContractUpgrade",
      "type": "event",
      "signature": "0x450db8da6efbe9c22f2347f7c2021231df1fc58d3ae9a2fa75d39fa446199305"
    },
    {
      "constant": false,
      "inputs": [
        {
          "name": "_v2Address",
          "type": "address"
        }
      ],
      "name": "setNewAddress",
      "outputs": [],
      "payable": false,
      "stateMutability": "nonpayable",
      "type": "function",
      "signature": "0x71587988"
    },
    {
      "constant": true,
      "inputs": [
        {
          "name": "_id",
          "type": "uint256"
        }
      ],
      "name": "getEcoAlly",
      "outputs": [
        {
          "name": "dna",
          "type": "uint256"
        },
        {
          "name": "id",
          "type": "uint256"
        }
      ],
      "payable": false,
      "stateMutability": "view",
      "type": "function",
      "signature": "0x3d1749cc"
    },
    {
      "constant": true,
      "inputs": [
        {
          "name": "_id",
          "type": "uint256"
        }
      ],
      "name": "getEcoAllyDnaOnly",
      "outputs": [
        {
          "name": "",
          "type": "uint256"
        }
      ],
      "payable": false,
      "stateMutability": "view",
      "type": "function",
      "signature": "0xb6e44a77"
    },
    {
      "constant": false,
      "inputs": [],
      "name": "unpause",
      "outputs": [],
      "payable": false,
      "stateMutability": "nonpayable",
      "type": "function",
      "signature": "0x3f4ba83a"
    },
    {
      "constant": false,
      "inputs": [
        {
          "name": "_seed",
          "type": "uint256"
        }
      ],
      "name": "addAlly",
      "outputs": [
        {
          "name": "owner",
          "type": "address"
        }
      ],
      "payable": false,
      "stateMutability": "nonpayable",
      "type": "function",
      "signature": "0xb15dcd5e"
    },
    {
      "constant": true,
      "inputs": [
        {
          "name": "_seed",
          "type": "uint256"
        }
      ],
      "name": "randDna",
      "outputs": [
        {
          "name": "",
          "type": "uint256"
        }
      ],
      "payable": false,
      "stateMutability": "view",
      "type": "function",
      "signature": "0x1fdd0c1e"
    },
    {
      "constant": false,
      "inputs": [
        {
          "name": "_from",
          "type": "address"
        },
        {
          "name": "_to",
          "type": "address"
        },
        {
          "name": "_tokenId",
          "type": "uint256"
        }
      ],
      "name": "transferEcoAlly",
      "outputs": [],
      "payable": false,
      "stateMutability": "nonpayable",
      "type": "function",
      "signature": "0x5998b700"
    }
  ],
  "bytecode": "0x60806040526000805460a060020a60ff02191690556010600155662386f26fc1000060025534801561003057600080fd5b5060008054600160a060020a031960a060020a60ff021990911674010000000000000000000000000000000000000000171633179055610cbd806100756000396000f3fe60806040526004361061011c5763ffffffff7c0100000000000000000000000000000000000000000000000000000000600035041663095ea7b381146101215780630a0f81681461015c57806318160ddd1461018d5780631fdd0c1e146101b457806323b872dd146101de57806327d7874c146102215780633d1749cc146102545780633e4bd727146102975780633f4ba83a146102c15780634a765037146102d65780635998b700146103005780635c975abb146103435780636352211e1461036c5780636af04a571461039657806370a08231146103ab57806371587988146103de5780638456cb59146104115780638462151c14610426578063a9059cbb146104a9578063b15dcd5e146104e2578063b6e44a771461050c575b600080fd5b34801561012d57600080fd5b5061015a6004803603604081101561014457600080fd5b50600160a060020a038135169060200135610536565b005b34801561016857600080fd5b506101716105b8565b60408051600160a060020a039092168252519081900360200190f35b34801561019957600080fd5b506101a26105c7565b60408051918252519081900360200190f35b3480156101c057600080fd5b506101a2600480360360208110156101d757600080fd5b50356105d1565b3480156101ea57600080fd5b5061015a6004803603606081101561020157600080fd5b50600160a060020a038135811691602081013590911690604001356105e4565b34801561022d57600080fd5b5061015a6004803603602081101561024457600080fd5b5035600160a060020a0316610660565b34801561026057600080fd5b5061027e6004803603602081101561027757600080fd5b50356106bb565b6040805192835260208301919091528051918290030190f35b3480156102a357600080fd5b50610171600480360360208110156102ba57600080fd5b50356106e2565b3480156102cd57600080fd5b5061015a6106fd565b3480156102e257600080fd5b50610171600480360360208110156102f957600080fd5b503561074c565b34801561030c57600080fd5b5061015a6004803603606081101561032357600080fd5b50600160a060020a03813581169160208101359091169060400135610650565b34801561034f57600080fd5b50610358610767565b604080519115158252519081900360200190f35b34801561037857600080fd5b506101716004803603602081101561038f57600080fd5b5035610777565b3480156103a257600080fd5b5061017161079b565b3480156103b757600080fd5b506101a2600480360360208110156103ce57600080fd5b5035600160a060020a03166107aa565b3480156103ea57600080fd5b5061015a6004803603602081101561040157600080fd5b5035600160a060020a03166107c5565b34801561041d57600080fd5b5061015a610855565b34801561043257600080fd5b506104596004803603602081101561044957600080fd5b5035600160a060020a03166108a9565b60408051602080825283518183015283519192839290830191858101910280838360005b8381101561049557818101518382015260200161047d565b505050509050019250505060405180910390f35b3480156104b557600080fd5b5061015a600480360360408110156104cc57600080fd5b50600160a060020a038135169060200135610972565b3480156104ee57600080fd5b506101716004803603602081101561050557600080fd5b50356109d8565b34801561051857600080fd5b506101a26004803603602081101561052f57600080fd5b50356109e3565b60005460a060020a900460ff161561054d57600080fd5b6105573382610a08565b151561056257600080fd5b61056c8183610a28565b60408051338152600160a060020a038416602082015280820183905290517f8c5be1e5ebec7d5bd14f71427d1e84f3dd0314c0f7b2291e5b200ac8c7c3b9259181900360600190a15050565b600054600160a060020a031681565b6003546000190190565b60006105dc82610a63565b90505b919050565b60005460a060020a900460ff16156105fb57600080fd5b600160a060020a038216151561061057600080fd5b600160a060020a03821630141561062657600080fd5b6106303382610a08565b151561063b57600080fd5b6106458382610a08565b151561065057600080fd5b61065b838383610a9c565b505050565b600054600160a060020a0316331461067757600080fd5b600160a060020a038116151561068c57600080fd5b6000805473ffffffffffffffffffffffffffffffffffffffff1916600160a060020a0392909216919091179055565b60008060006003848154811015156106cf57fe5b6000918252602090912001549492505050565b600660205260009081526040902054600160a060020a031681565b600054600160a060020a0316331461071457600080fd5b60005460a060020a900460ff16151561072c57600080fd5b600754600160a060020a03161561074257600080fd5b61074a610b86565b565b600460205260009081526040902054600160a060020a031681565b60005460a060020a900460ff1681565b600081815260046020526040902054600160a060020a03168015156105df57600080fd5b600754600160a060020a031681565b600160a060020a031660009081526005602052604090205490565b600054600160a060020a031633146107dc57600080fd5b60005460a060020a900460ff1615156107f457600080fd5b60078054600160a060020a03831673ffffffffffffffffffffffffffffffffffffffff19909116811790915560408051918252517f450db8da6efbe9c22f2347f7c2021231df1fc58d3ae9a2fa75d39fa4461993059181900360200190a150565b600054600160a060020a0316331461086c57600080fd5b60005460a060020a900460ff161561088357600080fd5b6000805474ff0000000000000000000000000000000000000000191660a060020a179055565b606060006108b6836107aa565b90508015156108d55750506040805160008152602081019091526105df565b606081604051908082528060200260200182016040528015610901578160200160208202803883390190505b509050600061090e6105c7565b90506000805b82811161096557600081815260046020526040902054600160a060020a038881169116141561095d5780848381518110151561094c57fe5b602090810290910101526001909101905b600101610914565b83955050505050506105df565b60005460a060020a900460ff161561098957600080fd5b600160a060020a038216151561099e57600080fd5b600160a060020a0382163014156109b457600080fd5b6109be3382610a08565b15156109c957600080fd5b6109d4338383610a9c565b5050565b60006105dc82610bd5565b6000806003838154811015156109f557fe5b6000918252602090912001549392505050565b600090815260046020526040902054600160a060020a0391821691161490565b600091825260066020526040909120805473ffffffffffffffffffffffffffffffffffffffff1916600160a060020a03909216919091179055565b60408051602080820184905282518083038201815291830190925280519101206002546000919081811515610a9457fe5b069392505050565b600160a060020a0380831660008181526005602090815260408083208054600101905585835260049091529020805473ffffffffffffffffffffffffffffffffffffffff19169091179055831615610b3757600160a060020a0383166000908152600560209081526040808320805460001901905583835260069091529020805473ffffffffffffffffffffffffffffffffffffffff191690555b60408051600160a060020a0380861682528416602082015280820183905290517fddf252ad1be2c89b69c2b068fc378daa952ba7f163c4a11628f55a4df523b3ef9181900360600190a1505050565b600054600160a060020a03163314610b9d57600080fd5b60005460a060020a900460ff161515610bb557600080fd5b6000805474ff000000000000000000000000000000000000000019169055565b600080610be183610a63565b60408051602081810183528382526003805460018101825560009190915291517fc2575a0e9e593c00f959f8c92f12db2869c3395a3b0502d05e2516446f71f85b83015582513381529081018290528083018490529151929350917f0c42492e9a23edb18d7a10ab834f9871ecd80970bffc97312a8a1c05b88e807d9181900360600190a1610c7260003383610a9c565b600090815260046020526040902054600160a060020a0316939250505056fea165627a7a72305820348c78ad54d20cb790352d23eac0b75305f22b10aa0e79dd7e3b1cf501579f8d0029",
  "source": "pragma solidity ^0.5.0;\n\nimport \"./EcoAllyOwnership.sol\";\n\n/// @title EcoAllies: Collectable Environmental super heroes  on the Ethereum blockchain.\n/// @author Bryson Kruk Design and Development\n/// @dev The main EcoAllies Contract, keeps track of all allies.\ncontract EcoAllyCore is EcoAllyOwnership {\n// We break the core contract into multiple files using inheritence, one for each major\n    // facet of functionality of EcoAllies. This allows us to keep related code bundled together while still\n    // avoiding a single giant file with everything in it. The breakdown is as follows:\n    //\n    //      - EcoAllyBase: This is where we define the most fundamental code shared throughout the core\n    //             functionality. This includes our main data storage, constants and data types, plus\n    //             internal functions for managing these items.\n    //\n    //      - EcoAllyAccessControl: This contract manages the various addresses and constraints for operations\n    //             that can be executed only by the CEO.\n    //\n    //      - EcoAllyOwnership: This provides the methods required for basic non-fungible token\n    //             transactions, following the draft ERC-721 spec (https://github.com/ethereum/EIPs/issues/721).\n\n    // Set in case the core contract is broken and an upgrade is required\n    address public newContractAddress;\n\n    /// @notice Creates the main EcoAllies smart contract instance.\n    constructor() public {\n        // Starts Paused.\n        paused = true;\n\n        // The Creator of the contract is the initial CEO\n        ceoAddress = msg.sender;\n    }\n\n    /// @dev Used to mark the smart contract as upgraded, in case there is a serious breaking bug.\n    /// This method does nothing but keep track of the new contract and emit a message indicating\n    /// that the new address is set. It's up to the clients of the contract to update to the new contract\n    /// address in that case. (This contract will be paused indefinitely if such an upgrade takes place.)\n    /// @param _v2Address new address\n    function setNewAddress(address _v2Address) external onlyCEO whenPaused {\n        newContractAddress = _v2Address;\n        emit ContractUpgrade(_v2Address);\n    }\n\n    /// @notice No tipping!\n    /// @dev Reject all Ether from being sent here, hopefully preventing user accidents\n    // function() external payable {\n     \n    // }\n\n    /// @notice Returns all the relevant information about a specific EcoAlly.\n    function getEcoAlly(uint256 _id) external view returns(uint256 dna, uint256 id ) {\n        EcoAlly storage ally = ecoAllies[_id];\n        return (dna = ally.dna, id = _id);\n    }\n\n    function getEcoAllyDnaOnly(uint256 _id) external view returns(uint256) {\n        EcoAlly storage ally = ecoAllies[_id];\n        return ally.dna;\n    }\n\n    /// @dev Override unpause so it requires all external contract addresses\n    ///  to be set before contract can be unpaused. Also, we can't have\n    ///  newContractAddress set either, because then the contract was upgraded.\n    /// @notice This is public rather than external so we can call super.unpause\n    ///  without using an expensive CALL.\n    function unpause() public onlyCEO whenPaused {\n        require(newContractAddress == address(0));\n        // Unpause contract\n        super.unpause();\n    }\n\n    function addAlly(uint _seed) external returns(address owner) {\n        return _createEcoAlly(_seed);\n    }\n\n    function randDna(uint _seed) external view returns (uint){\n        return _generateRandomDna(_seed);\n    }\n\n    function transferEcoAlly(address _from, address _to, uint _tokenId) external {\n        _transfer(_from, _to, _tokenId);\n    }\n\n\n}",
  "sourcePath": "/Users/brysonkruk/Documents/projects/eco-allies/contracts/EcoAllyCore.sol",
  "compiler": {
    "name": "solc",
    "version": "0.5.0+commit.1d4f565a.Emscripten.clang"
  },
  "schemaVersion": "3.0.2",
  "updatedAt": "2019-03-23T14:20:00.100Z",
  "devdoc": {
    "author": "Bryson Kruk Design and Development",
    "details": "The main EcoAllies Contract, keeps track of all allies.",
    "methods": {
      "approve(address,uint256)": {
        "details": "Required for ERC-721 comliance"
      },
      "balanceOf(address)": {
        "details": "Required for ERC-721 compliance"
      },
      "ownerOf(uint256)": {
        "details": "Required for ERC-721 compliance"
      },
      "setNewAddress(address)": {
        "details": "Used to mark the smart contract as upgraded, in case there is a serious breaking bug. This method does nothing but keep track of the new contract and emit a message indicating that the new address is set. It's up to the clients of the contract to update to the new contract address in that case. (This contract will be paused indefinitely if such an upgrade takes place.)",
        "params": {
          "_v2Address": "new address"
        }
      },
      "tokensOfOwner(address)": {
        "details": "This method MUST NEVER be called by smart contract code. First, it's fairly  expensive (it walks the entire EcoAlly array looking for cats belonging to owner),  but it also returns a dynamic array, which is only supported for web3 calls, and  not contract-to-contract calls.",
        "params": {
          "_owner": "The owner whose EcoAllies we are interested in."
        }
      },
      "totalSupply()": {
        "details": "Required for ERC-721 compliance."
      },
      "transfer(address,uint256)": {
        "details": "Required for ERC-721 compliance"
      },
      "transferFrom(address,address,uint256)": {
        "details": "Required for ERC-721 compliance"
      },
      "unpause()": {
        "details": "Override unpause so it requires all external contract addresses  to be set before contract can be unpaused. Also, we can't have  newContractAddress set either, because then the contract was upgraded."
      }
    },
    "title": "EcoAllies: Collectable Environmental super heroes  on the Ethereum blockchain."
  },
  "userdoc": {
    "methods": {
      "approve(address,uint256)": {
        "notice": "Grants another address the right to transfer a specific EcoAlly via transferFrom(). This is the prefered flow for transfering NFTs to contracts."
      },
      "balanceOf(address)": {
        "notice": "returns the number of EcoAllies currently assigned to a specified address"
      },
      "constructor": "Creates the main EcoAllies smart contract instance.",
      "getEcoAlly(uint256)": {
        "notice": "Returns all the relevant information about a specific EcoAlly."
      },
      "ownerOf(uint256)": {
        "notice": "Returns the address currently assigned to this token ID"
      },
      "tokensOfOwner(address)": {
        "notice": "Returns a list of all EcoAlly IDs assigned to an address."
      },
      "totalSupply()": {
        "notice": "Returns the total number of EcoAllies currently in existence."
      },
      "transfer(address,uint256)": {
        "notice": "Transfer an EcoAlly to another address. Make sure it's the correct address or it could be lost forever."
      },
      "transferFrom(address,address,uint256)": {
        "notice": "Transfer an EcoAlly to another address, for which the calling address has previously been granted transfer approval by the owner."
      },
      "unpause()": {
        "notice": "This is public rather than external so we can call super.unpause  without using an expensive CALL."
      }
    }
  }
}