{
  "contractName": "EcoAllyAccessControl",
  "abi": [
    {
      "constant": true,
      "inputs": [],
      "name": "ceoAddress",
      "outputs": [
        {
          "name": "",
          "type": "address"
        }
      ],
      "payable": false,
      "stateMutability": "view",
      "type": "function"
    },
    {
      "constant": true,
      "inputs": [],
      "name": "paused",
      "outputs": [
        {
          "name": "",
          "type": "bool"
        }
      ],
      "payable": false,
      "stateMutability": "view",
      "type": "function"
    },
    {
      "anonymous": false,
      "inputs": [
        {
          "indexed": false,
          "name": "newContract",
          "type": "address"
        }
      ],
      "name": "ContractUpgrade",
      "type": "event"
    },
    {
      "constant": false,
      "inputs": [
        {
          "name": "_newCEO",
          "type": "address"
        }
      ],
      "name": "setCEO",
      "outputs": [],
      "payable": false,
      "stateMutability": "nonpayable",
      "type": "function"
    },
    {
      "constant": false,
      "inputs": [],
      "name": "pause",
      "outputs": [],
      "payable": false,
      "stateMutability": "nonpayable",
      "type": "function"
    },
    {
      "constant": false,
      "inputs": [],
      "name": "unpause",
      "outputs": [],
      "payable": false,
      "stateMutability": "nonpayable",
      "type": "function"
    }
  ],
  "bytecode": "0x60806040526000805460a060020a60ff021916905534801561002057600080fd5b506102b7806100306000396000f3fe60806040526004361061006c5763ffffffff7c01000000000000000000000000000000000000000000000000000000006000350416630a0f8168811461007157806327d7874c146100a25780633f4ba83a146100d75780635c975abb146100ec5780638456cb5914610115575b600080fd5b34801561007d57600080fd5b5061008661012a565b60408051600160a060020a039092168252519081900360200190f35b3480156100ae57600080fd5b506100d5600480360360208110156100c557600080fd5b5035600160a060020a0316610139565b005b3480156100e357600080fd5b506100d5610194565b3480156100f857600080fd5b506101016101f4565b604080519115158252519081900360200190f35b34801561012157600080fd5b506100d5610215565b600054600160a060020a031681565b600054600160a060020a0316331461015057600080fd5b600160a060020a038116151561016557600080fd5b6000805473ffffffffffffffffffffffffffffffffffffffff1916600160a060020a0392909216919091179055565b600054600160a060020a031633146101ab57600080fd5b60005474010000000000000000000000000000000000000000900460ff1615156101d457600080fd5b6000805474ff000000000000000000000000000000000000000019169055565b60005474010000000000000000000000000000000000000000900460ff1681565b600054600160a060020a0316331461022c57600080fd5b60005474010000000000000000000000000000000000000000900460ff161561025457600080fd5b6000805474ff000000000000000000000000000000000000000019167401000000000000000000000000000000000000000017905556fea165627a7a723058201714a7e2f6c857cc83f7803ca103fac4fb359becd975a7bbbe789766e71cb3070029",
  "source": "pragma solidity ^0.5.0;\n\n//// @dev EcoAllyAccessControl is intended for top level access to special functions only from the CEO\ncontract EcoAllyAccessControl {\n\n    /// @dev Emited when contract is upgraded - See README.md for updgrade plan\n    event ContractUpgrade(address newContract);\n    \n    // CEO address for privledged function calls\n    address public ceoAddress;\n\n    // Keep track of whether the game is paused or not\n    bool public paused = false;\n\n    modifier onlyCEO(){\n        require(msg.sender == ceoAddress);\n        _;\n    }\n\n    function setCEO(address _newCEO) external onlyCEO {\n        require(_newCEO != address(0));\n        ceoAddress = _newCEO;\n    }\n\n    modifier whenNotPaused(){\n        require(!paused);\n        _;\n    }\n\n    modifier whenPaused(){\n        require(paused);\n        _;\n    }\n\n    function pause() external onlyCEO whenNotPaused {\n        paused = true;\n    }\n\n    function unpause() public onlyCEO whenPaused {\n        paused = false;\n    }\n}",
  "sourcePath": "/Users/brysonkruk/Documents/projects/eco-allies/contracts/EcoAllyAccessControl.sol",
  "compiler": {
    "name": "solc",
    "version": "0.5.0+commit.1d4f565a.Emscripten.clang"
  },
  "schemaVersion": "3.0.2",
  "updatedAt": "2019-04-09T15:44:03.980Z",
  "devdoc": {
    "details": "EcoAllyAccessControl is intended for top level access to special functions only from the CEO",
    "methods": {}
  },
  "userdoc": {
    "methods": {}
  }
}