{
  "contractName": "EcoAllyOwnership",
  "abi": [
    {
      "constant": true,
      "inputs": [],
      "name": "ceoAddress",
      "outputs": [
        {
          "name": "",
          "type": "address"
        }
      ],
      "payable": false,
      "stateMutability": "view",
      "type": "function"
    },
    {
      "constant": false,
      "inputs": [
        {
          "name": "_newCEO",
          "type": "address"
        }
      ],
      "name": "setCEO",
      "outputs": [],
      "payable": false,
      "stateMutability": "nonpayable",
      "type": "function"
    },
    {
      "constant": true,
      "inputs": [
        {
          "name": "",
          "type": "uint256"
        }
      ],
      "name": "ecoAllyIndexToApproved",
      "outputs": [
        {
          "name": "",
          "type": "address"
        }
      ],
      "payable": false,
      "stateMutability": "view",
      "type": "function"
    },
    {
      "constant": false,
      "inputs": [],
      "name": "unpause",
      "outputs": [],
      "payable": false,
      "stateMutability": "nonpayable",
      "type": "function"
    },
    {
      "constant": true,
      "inputs": [
        {
          "name": "",
          "type": "uint256"
        }
      ],
      "name": "ecoAllyIndexToOwner",
      "outputs": [
        {
          "name": "",
          "type": "address"
        }
      ],
      "payable": false,
      "stateMutability": "view",
      "type": "function"
    },
    {
      "constant": true,
      "inputs": [],
      "name": "paused",
      "outputs": [
        {
          "name": "",
          "type": "bool"
        }
      ],
      "payable": false,
      "stateMutability": "view",
      "type": "function"
    },
    {
      "constant": false,
      "inputs": [],
      "name": "pause",
      "outputs": [],
      "payable": false,
      "stateMutability": "nonpayable",
      "type": "function"
    },
    {
      "anonymous": false,
      "inputs": [
        {
          "indexed": false,
          "name": "from",
          "type": "address"
        },
        {
          "indexed": false,
          "name": "to",
          "type": "address"
        },
        {
          "indexed": false,
          "name": "tokenId",
          "type": "uint256"
        }
      ],
      "name": "Transfer",
      "type": "event"
    },
    {
      "anonymous": false,
      "inputs": [
        {
          "indexed": false,
          "name": "owner",
          "type": "address"
        },
        {
          "indexed": false,
          "name": "approved",
          "type": "address"
        },
        {
          "indexed": false,
          "name": "tokenId",
          "type": "uint256"
        }
      ],
      "name": "Approval",
      "type": "event"
    },
    {
      "anonymous": false,
      "inputs": [
        {
          "indexed": false,
          "name": "owner",
          "type": "address"
        },
        {
          "indexed": false,
          "name": "ecoAllyId",
          "type": "uint256"
        },
        {
          "indexed": false,
          "name": "ecoAllyDNA",
          "type": "uint256"
        }
      ],
      "name": "Creation",
      "type": "event"
    },
    {
      "anonymous": false,
      "inputs": [
        {
          "indexed": false,
          "name": "newContract",
          "type": "address"
        }
      ],
      "name": "ContractUpgrade",
      "type": "event"
    },
    {
      "constant": true,
      "inputs": [
        {
          "name": "_owner",
          "type": "address"
        }
      ],
      "name": "balanceOf",
      "outputs": [
        {
          "name": "count",
          "type": "uint256"
        }
      ],
      "payable": false,
      "stateMutability": "view",
      "type": "function"
    },
    {
      "constant": true,
      "inputs": [
        {
          "name": "_tokenId",
          "type": "uint256"
        }
      ],
      "name": "ownerOf",
      "outputs": [
        {
          "name": "owner",
          "type": "address"
        }
      ],
      "payable": false,
      "stateMutability": "view",
      "type": "function"
    },
    {
      "constant": false,
      "inputs": [
        {
          "name": "_to",
          "type": "address"
        },
        {
          "name": "_tokenId",
          "type": "uint256"
        }
      ],
      "name": "transfer",
      "outputs": [],
      "payable": false,
      "stateMutability": "nonpayable",
      "type": "function"
    },
    {
      "constant": false,
      "inputs": [
        {
          "name": "_to",
          "type": "address"
        },
        {
          "name": "_tokenId",
          "type": "uint256"
        }
      ],
      "name": "approve",
      "outputs": [],
      "payable": false,
      "stateMutability": "nonpayable",
      "type": "function"
    },
    {
      "constant": false,
      "inputs": [
        {
          "name": "_from",
          "type": "address"
        },
        {
          "name": "_to",
          "type": "address"
        },
        {
          "name": "_tokenId",
          "type": "uint256"
        }
      ],
      "name": "transferFrom",
      "outputs": [],
      "payable": false,
      "stateMutability": "nonpayable",
      "type": "function"
    },
    {
      "constant": true,
      "inputs": [],
      "name": "totalSupply",
      "outputs": [
        {
          "name": "",
          "type": "uint256"
        }
      ],
      "payable": false,
      "stateMutability": "view",
      "type": "function"
    },
    {
      "constant": true,
      "inputs": [
        {
          "name": "_owner",
          "type": "address"
        }
      ],
      "name": "tokensOfOwner",
      "outputs": [
        {
          "name": "ownerTokens",
          "type": "uint256[]"
        }
      ],
      "payable": false,
      "stateMutability": "view",
      "type": "function"
    }
  ],
  "bytecode": "0x608060405260008060146101000a81548160ff0219169083151502179055506010600155600154600a0a60025534801561003857600080fd5b50611030806100486000396000f3fe6080604052600436106100d0576000357c0100000000000000000000000000000000000000000000000000000000900463ffffffff168063095ea7b3146100d55780630a0f81681461013057806318160ddd1461018757806323b872dd146101b257806327d7874c1461022d5780633e4bd7271461027e5780633f4ba83a146102f95780634a765037146103105780635c975abb1461038b5780636352211e146103ba57806370a08231146104355780638456cb591461049a5780638462151c146104b1578063a9059cbb14610557575b600080fd5b3480156100e157600080fd5b5061012e600480360360408110156100f857600080fd5b81019080803573ffffffffffffffffffffffffffffffffffffffff169060200190929190803590602001909291905050506105b2565b005b34801561013c57600080fd5b50610145610690565b604051808273ffffffffffffffffffffffffffffffffffffffff1673ffffffffffffffffffffffffffffffffffffffff16815260200191505060405180910390f35b34801561019357600080fd5b5061019c6106b5565b6040518082815260200191505060405180910390f35b3480156101be57600080fd5b5061022b600480360360608110156101d557600080fd5b81019080803573ffffffffffffffffffffffffffffffffffffffff169060200190929190803573ffffffffffffffffffffffffffffffffffffffff169060200190929190803590602001909291905050506106c5565b005b34801561023957600080fd5b5061027c6004803603602081101561025057600080fd5b81019080803573ffffffffffffffffffffffffffffffffffffffff169060200190929190505050610792565b005b34801561028a57600080fd5b506102b7600480360360208110156102a157600080fd5b810190808035906020019092919050505061086c565b604051808273ffffffffffffffffffffffffffffffffffffffff1673ffffffffffffffffffffffffffffffffffffffff16815260200191505060405180910390f35b34801561030557600080fd5b5061030e61089f565b005b34801561031c57600080fd5b506103496004803603602081101561033357600080fd5b8101908080359060200190929190505050610931565b604051808273ffffffffffffffffffffffffffffffffffffffff1673ffffffffffffffffffffffffffffffffffffffff16815260200191505060405180910390f35b34801561039757600080fd5b506103a0610964565b604051808215151515815260200191505060405180910390f35b3480156103c657600080fd5b506103f3600480360360208110156103dd57600080fd5b8101908080359060200190929190505050610977565b604051808273ffffffffffffffffffffffffffffffffffffffff1673ffffffffffffffffffffffffffffffffffffffff16815260200191505060405180910390f35b34801561044157600080fd5b506104846004803603602081101561045857600080fd5b81019080803573ffffffffffffffffffffffffffffffffffffffff1690602001909291905050506109f3565b6040518082815260200191505060405180910390f35b3480156104a657600080fd5b506104af610a3c565b005b3480156104bd57600080fd5b50610500600480360360208110156104d457600080fd5b81019080803573ffffffffffffffffffffffffffffffffffffffff169060200190929190505050610ad0565b6040518080602001828103825283818151815260200191508051906020019060200280838360005b83811015610543578082015181840152602081019050610528565b505050509050019250505060405180910390f35b34801561056357600080fd5b506105b06004803603604081101561057a57600080fd5b81019080803573ffffffffffffffffffffffffffffffffffffffff16906020019092919080359060200190929190505050610c1d565b005b600060149054906101000a900460ff161515156105ce57600080fd5b6105d83382610cd4565b15156105e357600080fd5b6105ed8183610d40565b7f8c5be1e5ebec7d5bd14f71427d1e84f3dd0314c0f7b2291e5b200ac8c7c3b925338383604051808473ffffffffffffffffffffffffffffffffffffffff1673ffffffffffffffffffffffffffffffffffffffff1681526020018373ffffffffffffffffffffffffffffffffffffffff1673ffffffffffffffffffffffffffffffffffffffff168152602001828152602001935050505060405180910390a15050565b6000809054906101000a900473ffffffffffffffffffffffffffffffffffffffff1681565b6000600160038054905003905090565b600060149054906101000a900460ff161515156106e157600080fd5b600073ffffffffffffffffffffffffffffffffffffffff168273ffffffffffffffffffffffffffffffffffffffff161415151561071d57600080fd5b3073ffffffffffffffffffffffffffffffffffffffff168273ffffffffffffffffffffffffffffffffffffffff161415151561075857600080fd5b6107623382610d96565b151561076d57600080fd5b6107778382610cd4565b151561078257600080fd5b61078d838383610e02565b505050565b6000809054906101000a900473ffffffffffffffffffffffffffffffffffffffff1673ffffffffffffffffffffffffffffffffffffffff163373ffffffffffffffffffffffffffffffffffffffff161415156107ed57600080fd5b600073ffffffffffffffffffffffffffffffffffffffff168173ffffffffffffffffffffffffffffffffffffffff161415151561082957600080fd5b806000806101000a81548173ffffffffffffffffffffffffffffffffffffffff021916908373ffffffffffffffffffffffffffffffffffffffff16021790555050565b60066020528060005260406000206000915054906101000a900473ffffffffffffffffffffffffffffffffffffffff1681565b6000809054906101000a900473ffffffffffffffffffffffffffffffffffffffff1673ffffffffffffffffffffffffffffffffffffffff163373ffffffffffffffffffffffffffffffffffffffff161415156108fa57600080fd5b600060149054906101000a900460ff16151561091557600080fd5b60008060146101000a81548160ff021916908315150217905550565b60046020528060005260406000206000915054906101000a900473ffffffffffffffffffffffffffffffffffffffff1681565b600060149054906101000a900460ff1681565b60006004600083815260200190815260200160002060009054906101000a900473ffffffffffffffffffffffffffffffffffffffff169050600073ffffffffffffffffffffffffffffffffffffffff168173ffffffffffffffffffffffffffffffffffffffff16141515156109eb57600080fd5b809050919050565b6000600560008373ffffffffffffffffffffffffffffffffffffffff1673ffffffffffffffffffffffffffffffffffffffff168152602001908152602001600020549050919050565b6000809054906101000a900473ffffffffffffffffffffffffffffffffffffffff1673ffffffffffffffffffffffffffffffffffffffff163373ffffffffffffffffffffffffffffffffffffffff16141515610a9757600080fd5b600060149054906101000a900460ff16151515610ab357600080fd5b6001600060146101000a81548160ff021916908315150217905550565b60606000610add836109f3565b90506000811415610b21576000604051908082528060200260200182016040528015610b185781602001602082028038833980820191505090505b50915050610c18565b606081604051908082528060200260200182016040528015610b525781602001602082028038833980820191505090505b5090506000610b5f6106b5565b9050600080905060008090505b8281111515610c0f578673ffffffffffffffffffffffffffffffffffffffff166004600083815260200190815260200160002060009054906101000a900473ffffffffffffffffffffffffffffffffffffffff1673ffffffffffffffffffffffffffffffffffffffff161415610c0257808483815181101515610beb57fe5b906020019060200201818152505081806001019250505b8080600101915050610b6c565b83955050505050505b919050565b600060149054906101000a900460ff16151515610c3957600080fd5b600073ffffffffffffffffffffffffffffffffffffffff168273ffffffffffffffffffffffffffffffffffffffff1614151515610c7557600080fd5b3073ffffffffffffffffffffffffffffffffffffffff168273ffffffffffffffffffffffffffffffffffffffff1614151515610cb057600080fd5b610cba3382610cd4565b1515610cc557600080fd5b610cd0338383610e02565b5050565b60008273ffffffffffffffffffffffffffffffffffffffff166004600084815260200190815260200160002060009054906101000a900473ffffffffffffffffffffffffffffffffffffffff1673ffffffffffffffffffffffffffffffffffffffff1614905092915050565b806006600084815260200190815260200160002060006101000a81548173ffffffffffffffffffffffffffffffffffffffff021916908373ffffffffffffffffffffffffffffffffffffffff1602179055505050565b60008273ffffffffffffffffffffffffffffffffffffffff166004600084815260200190815260200160002060009054906101000a900473ffffffffffffffffffffffffffffffffffffffff1673ffffffffffffffffffffffffffffffffffffffff1614905092915050565b600560008373ffffffffffffffffffffffffffffffffffffffff1673ffffffffffffffffffffffffffffffffffffffff16815260200190815260200160002060008154809291906001019190505550816004600083815260200190815260200160002060006101000a81548173ffffffffffffffffffffffffffffffffffffffff021916908373ffffffffffffffffffffffffffffffffffffffff160217905550600073ffffffffffffffffffffffffffffffffffffffff168373ffffffffffffffffffffffffffffffffffffffff16141515610f6057600560008473ffffffffffffffffffffffffffffffffffffffff1673ffffffffffffffffffffffffffffffffffffffff16815260200190815260200160002060008154809291906001900391905055506006600082815260200190815260200160002060006101000a81549073ffffffffffffffffffffffffffffffffffffffff02191690555b7fddf252ad1be2c89b69c2b068fc378daa952ba7f163c4a11628f55a4df523b3ef838383604051808473ffffffffffffffffffffffffffffffffffffffff1673ffffffffffffffffffffffffffffffffffffffff1681526020018373ffffffffffffffffffffffffffffffffffffffff1673ffffffffffffffffffffffffffffffffffffffff168152602001828152602001935050505060405180910390a150505056fea165627a7a7230582069eed2169c27c2c6887dae1f180fc313905436493977c3b2aa9afd7246e26aa90029",
  "source": "pragma solidity ^0.5.0;\n\nimport \"./EcoAllyBase.sol\";\nimport \"./Ownable.sol\";\nimport \"./ERC721.sol\";\n\ncontract EcoAllyOwnership is EcoAllyBase, ERC721 {\n    /// @notice Name and symbol of the non fungible token, as defined in ERC721\n    ///string public constant name = \"EcoAllies\";\n    ///string public constant symbol = \"CK\";\n\n    bytes4 constant InterfaceSignature_ERC721 =\n    bytes4(keccak256(\"name()\"))^\n    bytes4(keccak256(\"symbol()\"))^\n    bytes4(keccak256(\"totalSupply()\"))^\n    bytes4(keccak256(\"balanceOf(address)\"))^\n    bytes4(keccak256(\"ownerOf(uint256)\"))^\n    bytes4(keccak256(\"approve(address,uint256)\"))^\n    bytes4(keccak256(\"transfer(address,uint256)\"))^\n    bytes4(keccak256(\"transferFrom(address,address,uint256)\"))^\n    bytes4(keccak256(\"tokensOfOwner(address)\"))^\n    bytes4(keccak256(\"tokenMetadata(uint256,string)\"));\n\n    function _owns(address _claimant, uint256 _tokenId) internal view returns (bool) {\n        return ecoAllyIndexToOwner[_tokenId] == _claimant;\n    }\n\n    \n    function _approvedFor(address _claimant, uint256 _tokenId) internal view returns (bool) {\n        return ecoAllyIndexToOwner[_tokenId] == _claimant;\n    }\n\n    function _approve(uint256 _tokenId, address _approved) internal {\n        ecoAllyIndexToApproved[_tokenId] = _approved;\n    }\n\n    /// @notice returns the number of EcoAllies currently assigned to a specified address\n    /// @dev Required for ERC-721 compliance\n    function balanceOf(address _owner) public view returns (uint256 count) {\n        return ownershipTokenCount[_owner];\n    }\n\n    /// @notice Returns the address currently assigned to this token ID\n    /// @dev Required for ERC-721 compliance\n    function ownerOf(uint256 _tokenId) external view returns (address owner) {\n        owner = ecoAllyIndexToOwner[_tokenId];\n        require(owner != address(0));\n        return owner;\n    }\n\n    /// @notice Transfer an EcoAlly to another address. Make sure it's the correct address or it could be lost forever.\n    /// @dev Required for ERC-721 compliance\n    function transfer(address _to, uint256 _tokenId) external whenNotPaused {\n        // Safety check to prevent against an unexpected 0x0 default.\n        require(_to != address(0));\n        // Disallow transfers to this contract to prevent accidental misuse.\n        require(_to != address(this));\n        // You can only send your own EcoAlly\n        require(_owns(msg.sender, _tokenId));\n\n        // Reassign ownership, clear pending approvals, emit Transfer event.\n        _transfer(msg.sender, _to, _tokenId);\n    }\n\n    /// @notice Grants another address the right to transfer a specific EcoAlly via transferFrom(). This is the prefered flow for transfering NFTs to contracts.\n    /// @dev Required for ERC-721 comliance\n    function approve(address _to, uint256 _tokenId) external whenNotPaused {\n        // Only an owner can grant transfer approval\n        require(_owns(msg.sender, _tokenId));\n\n        // Register the approval (replacing any previous approval).\n        _approve(_tokenId, _to);\n\n        // Emit the Approval event.\n        emit Approval(msg.sender, _to, _tokenId);\n    }\n\n    /// @notice Transfer an EcoAlly to another address, for which the calling address\n    /// has previously been granted transfer approval by the owner.\n    /// @dev Required for ERC-721 compliance\n    function transferFrom(address _from, address _to, uint256 _tokenId) external whenNotPaused {\n        // Safety check to prevent against an unexpected 0x0 default.\n        require(_to != address(0));\n        // Disallow transfers to this contract to prevent accidental misuse.\n        require(_to != address(this));\n        // Check for approval and valid ownership\n        require(_approvedFor(msg.sender, _tokenId));\n        require(_owns(_from, _tokenId));\n\n        // Reassign ownership (also clears pending approvals and emits Transfer events).\n        _transfer(_from, _to, _tokenId);\n    }\n\n    /// @notice Returns the total number of EcoAllies currently in existence.\n    /// @dev Required for ERC-721 compliance.\n    function totalSupply() public view returns (uint) {\n        return ecoAllies.length -1;\n    }\n\n\n    /// @notice Returns a list of all EcoAlly IDs assigned to an address.\n    /// @param _owner The owner whose EcoAllies we are interested in.\n    /// @dev This method MUST NEVER be called by smart contract code. First, it's fairly\n    ///  expensive (it walks the entire EcoAlly array looking for cats belonging to owner),\n    ///  but it also returns a dynamic array, which is only supported for web3 calls, and\n    ///  not contract-to-contract calls.\n    function tokensOfOwner(address _owner) external view returns(uint256[] memory ownerTokens) {\n        uint256 tokenCount = balanceOf(_owner);\n\n        if(tokenCount == 0){\n            // return an empty array\n            return new uint256[](0);\n        } else {\n            uint256[] memory result = new uint256[](tokenCount);\n            uint256 totalEcoAllies = totalSupply();\n            uint256 resultIndex = 0;\n\n            // We count on the fact that all allies have IDs starting at 1 and increasing to the\n            // totalEcoAllies count.\n            uint256 ecoAllyId;\n\n            for(ecoAllyId = 0; ecoAllyId <= totalEcoAllies; ecoAllyId++) {\n                if(ecoAllyIndexToOwner[ecoAllyId] == _owner) {\n                    result[resultIndex] = ecoAllyId;\n                    resultIndex++;\n                }\n            }\n\n            return result;\n        }\n    }\n\n\n}",
  "sourcePath": "/Users/brysonkruk/Documents/projects/eco-allies/contracts/EcoAllyOwnership.sol",
  "compiler": {
    "name": "solc",
    "version": "0.5.0+commit.1d4f565a.Emscripten.clang"
  },
  "schemaVersion": "3.0.2",
  "updatedAt": "2019-03-19T15:26:34.858Z",
  "devdoc": {
    "methods": {
      "approve(address,uint256)": {
        "details": "Required for ERC-721 comliance"
      },
      "balanceOf(address)": {
        "details": "Required for ERC-721 compliance"
      },
      "ownerOf(uint256)": {
        "details": "Required for ERC-721 compliance"
      },
      "tokensOfOwner(address)": {
        "details": "This method MUST NEVER be called by smart contract code. First, it's fairly  expensive (it walks the entire EcoAlly array looking for cats belonging to owner),  but it also returns a dynamic array, which is only supported for web3 calls, and  not contract-to-contract calls.",
        "params": {
          "_owner": "The owner whose EcoAllies we are interested in."
        }
      },
      "totalSupply()": {
        "details": "Required for ERC-721 compliance."
      },
      "transfer(address,uint256)": {
        "details": "Required for ERC-721 compliance"
      },
      "transferFrom(address,address,uint256)": {
        "details": "Required for ERC-721 compliance"
      }
    }
  },
  "userdoc": {
    "methods": {
      "approve(address,uint256)": {
        "notice": "Grants another address the right to transfer a specific EcoAlly via transferFrom(). This is the prefered flow for transfering NFTs to contracts."
      },
      "balanceOf(address)": {
        "notice": "returns the number of EcoAllies currently assigned to a specified address"
      },
      "ownerOf(uint256)": {
        "notice": "Returns the address currently assigned to this token ID"
      },
      "tokensOfOwner(address)": {
        "notice": "Returns a list of all EcoAlly IDs assigned to an address."
      },
      "totalSupply()": {
        "notice": "Returns the total number of EcoAllies currently in existence."
      },
      "transfer(address,uint256)": {
        "notice": "Transfer an EcoAlly to another address. Make sure it's the correct address or it could be lost forever."
      },
      "transferFrom(address,address,uint256)": {
        "notice": "Transfer an EcoAlly to another address, for which the calling address has previously been granted transfer approval by the owner."
      }
    }
  }
}