{
  "contractName": "EcoAllyBase",
  "abi": [
    {
      "constant": true,
      "inputs": [],
      "name": "ceoAddress",
      "outputs": [
        {
          "name": "",
          "type": "address"
        }
      ],
      "payable": false,
      "stateMutability": "view",
      "type": "function"
    },
    {
      "constant": false,
      "inputs": [
        {
          "name": "_newCEO",
          "type": "address"
        }
      ],
      "name": "setCEO",
      "outputs": [],
      "payable": false,
      "stateMutability": "nonpayable",
      "type": "function"
    },
    {
      "constant": true,
      "inputs": [
        {
          "name": "",
          "type": "uint256"
        }
      ],
      "name": "ecoAllyIndexToApproved",
      "outputs": [
        {
          "name": "",
          "type": "address"
        }
      ],
      "payable": false,
      "stateMutability": "view",
      "type": "function"
    },
    {
      "constant": false,
      "inputs": [],
      "name": "unpause",
      "outputs": [],
      "payable": false,
      "stateMutability": "nonpayable",
      "type": "function"
    },
    {
      "constant": true,
      "inputs": [
        {
          "name": "",
          "type": "uint256"
        }
      ],
      "name": "ecoAllyIndexToOwner",
      "outputs": [
        {
          "name": "",
          "type": "address"
        }
      ],
      "payable": false,
      "stateMutability": "view",
      "type": "function"
    },
    {
      "constant": true,
      "inputs": [],
      "name": "paused",
      "outputs": [
        {
          "name": "",
          "type": "bool"
        }
      ],
      "payable": false,
      "stateMutability": "view",
      "type": "function"
    },
    {
      "constant": false,
      "inputs": [],
      "name": "pause",
      "outputs": [],
      "payable": false,
      "stateMutability": "nonpayable",
      "type": "function"
    },
    {
      "anonymous": false,
      "inputs": [
        {
          "indexed": false,
          "name": "owner",
          "type": "address"
        },
        {
          "indexed": false,
          "name": "ecoAllyId",
          "type": "uint256"
        },
        {
          "indexed": false,
          "name": "ecoAllyDNA",
          "type": "uint256"
        }
      ],
      "name": "Creation",
      "type": "event"
    },
    {
      "anonymous": false,
      "inputs": [
        {
          "indexed": false,
          "name": "from",
          "type": "address"
        },
        {
          "indexed": false,
          "name": "to",
          "type": "address"
        },
        {
          "indexed": false,
          "name": "tokenId",
          "type": "uint256"
        }
      ],
      "name": "Transfer",
      "type": "event"
    },
    {
      "anonymous": false,
      "inputs": [
        {
          "indexed": false,
          "name": "newContract",
          "type": "address"
        }
      ],
      "name": "ContractUpgrade",
      "type": "event"
    }
  ],
  "bytecode": "0x608060405260008060146101000a81548160ff0219169083151502179055506010600155600154600a0a60025534801561003857600080fd5b5061054d806100486000396000f3fe608060405260043610610083576000357c0100000000000000000000000000000000000000000000000000000000900463ffffffff1680630a0f81681461008857806327d7874c146100df5780633e4bd727146101305780633f4ba83a146101ab5780634a765037146101c25780635c975abb1461023d5780638456cb591461026c575b600080fd5b34801561009457600080fd5b5061009d610283565b604051808273ffffffffffffffffffffffffffffffffffffffff1673ffffffffffffffffffffffffffffffffffffffff16815260200191505060405180910390f35b3480156100eb57600080fd5b5061012e6004803603602081101561010257600080fd5b81019080803573ffffffffffffffffffffffffffffffffffffffff1690602001909291905050506102a8565b005b34801561013c57600080fd5b506101696004803603602081101561015357600080fd5b8101908080359060200190929190505050610382565b604051808273ffffffffffffffffffffffffffffffffffffffff1673ffffffffffffffffffffffffffffffffffffffff16815260200191505060405180910390f35b3480156101b757600080fd5b506101c06103b5565b005b3480156101ce57600080fd5b506101fb600480360360208110156101e557600080fd5b8101908080359060200190929190505050610447565b604051808273ffffffffffffffffffffffffffffffffffffffff1673ffffffffffffffffffffffffffffffffffffffff16815260200191505060405180910390f35b34801561024957600080fd5b5061025261047a565b604051808215151515815260200191505060405180910390f35b34801561027857600080fd5b5061028161048d565b005b6000809054906101000a900473ffffffffffffffffffffffffffffffffffffffff1681565b6000809054906101000a900473ffffffffffffffffffffffffffffffffffffffff1673ffffffffffffffffffffffffffffffffffffffff163373ffffffffffffffffffffffffffffffffffffffff1614151561030357600080fd5b600073ffffffffffffffffffffffffffffffffffffffff168173ffffffffffffffffffffffffffffffffffffffff161415151561033f57600080fd5b806000806101000a81548173ffffffffffffffffffffffffffffffffffffffff021916908373ffffffffffffffffffffffffffffffffffffffff16021790555050565b60066020528060005260406000206000915054906101000a900473ffffffffffffffffffffffffffffffffffffffff1681565b6000809054906101000a900473ffffffffffffffffffffffffffffffffffffffff1673ffffffffffffffffffffffffffffffffffffffff163373ffffffffffffffffffffffffffffffffffffffff1614151561041057600080fd5b600060149054906101000a900460ff16151561042b57600080fd5b60008060146101000a81548160ff021916908315150217905550565b60046020528060005260406000206000915054906101000a900473ffffffffffffffffffffffffffffffffffffffff1681565b600060149054906101000a900460ff1681565b6000809054906101000a900473ffffffffffffffffffffffffffffffffffffffff1673ffffffffffffffffffffffffffffffffffffffff163373ffffffffffffffffffffffffffffffffffffffff161415156104e857600080fd5b600060149054906101000a900460ff1615151561050457600080fd5b6001600060146101000a81548160ff02191690831515021790555056fea165627a7a7230582019242e6337e51ef63bc3ec3e16792fa020f448e2473996c34feeb78a6ce476e30029",
  "source": "pragma solidity ^0.5.0;\n\nimport \"./EcoAllyAccessControl.sol\";\n\n/// @title A non-fungible token expressing the EcoAlly\n/// @dev EcoAllyBase contains the base contract which holds structs, events, and base variables\ncontract EcoAllyBase is EcoAllyAccessControl {\n    /// @dev Creation event is fired whenever a new Ally comes into creation\n    event Creation(address owner, uint256 ecoAllyId, uint256 ecoAllyDNA);\n\n    /// @dev Transfer event as defined in ERC721 spec. Emitted every time an Ally ownership is assigned, including creation\n    event Transfer(address from, address to, uint256 tokenId);\n    \n    /// @dev Used to generate unique DNA\n    uint dnaDigits = 16;\n    uint dnaModulus = 10 ** dnaDigits;\n\n    /// @dev The main Eco Ally struct, every Ally is represented by a copy of this structure\n    struct EcoAlly{\n        // This is supposed to be the secret part\n        uint256 dna;\n    }\n    \n\n    /// @dev all EcoAllies in existence. The ID of each ally is actually an index into this array\n    EcoAlly[] ecoAllies;\n\n    /// @dev maps the ally IDs to addresses of the owners\n    mapping (uint256 => address) public ecoAllyIndexToOwner;\n    /// @dev a mapping from the owner address to the count of tokens they have\n    mapping (address => uint256) ownershipTokenCount;\n    /// @dev a mapping from the EcoAllyIds to an address that has been approved to call transferFrom()\n    /// zero vakue means no approval at this time\n    mapping (uint256 => address) public ecoAllyIndexToApproved;\n\n    \n    /// @dev Generates Unique DNA\n    function _generateRandomDna(uint _seed) internal view returns (uint) {\n        uint rand = uint(keccak256(abi.encodePacked(_seed)));\n        return rand % dnaModulus;\n    }\n\n    /// @dev Assign ownership of a specific EcoAlly to a new address\n    function _transfer(address _from, address _to, uint256 _tokenId) internal {\n        // EcoAlly Token Count - can't go beyond 2^256 or this breaks\n        ownershipTokenCount[_to]++;\n        // Transfer Ownership\n        ecoAllyIndexToOwner[_tokenId] = _to;\n\n        // When creating a new EcoAlly, _from is 0x0, but we can't account for this address\n        if(_from != address(0)) {\n            ownershipTokenCount[_from]--;\n            // Clear previous approved ownership exchange\n            delete ecoAllyIndexToApproved[_tokenId];\n        }\n\n        // Emit the transfer event\n        emit Transfer(_from, _to, _tokenId);\n    }\n\n    /// @dev an internal method that creates a new eco ally and stores it\n    /// Doesn't do any checking, and should only be called when the input data is known to be accurate.\n    /// Will Generate both the birth and transfer events\n    function _createEcoAlly(uint _seed) internal returns (address owner) {\n        uint _dna = _generateRandomDna(_seed);\n        uint256 newEcoAllyId = ecoAllies.push(EcoAlly(_dna)) -1;\n\n        /// @dev emit the creation event\n        emit Creation(msg.sender, newEcoAllyId, _dna);\n\n        // This will assign ownership, and also the Transfer event as per ERC721 draft\n        _transfer(0x0000000000000000000000000000000000000000, msg.sender, newEcoAllyId);\n\n        return ecoAllyIndexToOwner[newEcoAllyId];\n    }\n\n    \n\n    \n\n}",
  "sourcePath": "/Users/brysonkruk/Documents/projects/eco-allies/contracts/EcoAllyBase.sol",
  "compiler": {
    "name": "solc",
    "version": "0.5.0+commit.1d4f565a.Emscripten.clang"
  },
  "schemaVersion": "3.0.2",
  "updatedAt": "2019-03-19T15:26:34.777Z",
  "devdoc": {
    "details": "EcoAllyBase contains the base contract which holds structs, events, and base variables",
    "methods": {},
    "title": "A non-fungible token expressing the EcoAlly"
  },
  "userdoc": {
    "methods": {}
  }
}